:100000000C9462000C948A000C948A000C948A0070
:100010000C948A000C948A000C948A000C948A0038
:100020000C948A000C948A000C948A000C948A0028
:100030000C948A000C948A000C948A000C948A0018
:100040000C9464030C948A000C94D4030C94AE03B7
:100050000C948A000C948A000C948A000C948A00F8
:100060000C948A000C948A0008000000BE92244977
:10007000123EABAAAA2ABECDCCCC4C3E00000080DA
:10008000BEABAAAAAA3E00000000BF000000803F4D
:100090000000000000084178D3BB4387D1133D190D
:1000A0000E3CC3BD4282AD2B3E68EC8276BED98F3A
:1000B000E1A93E4C80EFFFBE01C4FF7F3F0000007E
:1000C00000005E0611241FBECFEFD8E0DEBFCDBF1B
:1000D00011E0A0E0B1E0ECEEF2E102C005900D927B
:1000E000AA32B107D9F721E0AAE2B1E001C01D921E
:1000F000A03DB207E1F710E0C2E6D0E004C02197CE
:10010000FE010E94AD06C136D107C9F70E94060460
:100110000C9474090C9400008E3008F08E50877097
:10012000806480937C0080917A00806480937A0060
:1001300080917A0086FDFCCF8091780090917900C3
:1001400008953FB7F89480912F0190913001A091CC
:100150003101B091320126B5A89B05C02F3F19F09F
:100160000196A11DB11D3FBFBA2FA92F982F882737
:10017000BC01CD01620F711D811D911D42E0660F12
:10018000771F881F991F4A95D1F708958F929F92E4
:10019000AF92BF92CF92DF92EF92FF924B015C0140
:1001A0000E94A1006B017C010E94A1006C197D09D5
:1001B0008E099F09683E734081059105A8F321E0EF
:1001C000821A9108A108B10888EEC80E83E0D81EF3
:1001D000E11CF11C81149104A104B10429F7FF90E2
:1001E000EF90DF90CF90BF90AF909F908F90089549
:1001F000AF92BF92CF92DF92EF92FF920F931F9335
:10020000CF93DF936C017B018B01040F151FEB0172
:100210005E01AE18BF08C017D10759F06991D60129
:10022000ED91FC910190F081E02DC6010995892B9B
:1002300079F7C501DF91CF911F910F91FF90EF905A
:10024000DF90CF90BF90AF900895FC01538D448D07
:10025000252F30E0842F90E0821B930B541710F071
:10026000CF96089501970895FC01918D828D98177E
:1002700061F0A28DAE0FBF2FB11D5D968C91928D56
:100280009F5F9F73928F90E008958FEF9FEF089587
:10029000FC01918D828D981731F0828DE80FF11D50
:1002A000858D90E008958FEF9FEF0895FC01918D6B
:1002B000228D892F90E0805C9F4F821B91098F7364
:1002C0009927089583E391E00E94560121E0892B4C
:1002D00009F420E0822F089580E090E0892B29F036
:1002E0000E94620181110C9400000895FC01A48D0C
:1002F000A80FB92FB11DA35ABF4F2C91848D90E048
:1003000001968F739927848FA689B7892C93A0892A
:10031000B1898C91837080648C93938D848D9813B4
:1003200006C00288F389E02D80818F7D8083089547
:10033000EF92FF920F931F93CF93DF93EC0181E035
:10034000888F9B8D8C8D98131AC0E889F9898081DC
:1003500085FF15C09FB7F894EE89FF896083E8890F
:10036000F98980818370806480839FBF81E090E001
:10037000DF91CF911F910F91FF90EF900895F62E8E
:100380000B8D10E00F5F1F4F0F731127E02E8C8D28
:100390008E110CC00FB607FCFACFE889F98980816D
:1003A00085FFF5CFCE010E947601F1CFEB8DEC0FEA
:1003B000FD2FF11DE35AFF4FF0829FB7F8940B8F8A
:1003C000EA89FB8980818062CFCFCF93DF93EC01F4
:1003D000888D8823B9F0AA89BB89E889F9898C912D
:1003E00085FD03C0808186FD0DC00FB607FCF7CFE9
:1003F0008C9185FFF2CF808185FFEDCFCE010E94E9
:100400007601E9CFDF91CF910895DF92EF92FF92CD
:100410000F931F93CF93DF93D82E85E0E82EF12C16
:10042000D0E0C0E00FEF13E08D2D0E948C0080170C
:1004300091070CF48C01C817D9070CF4EC0162E0A9
:1004400070E080E090E00E94C60081E0E81AF108C8
:1004500059F7C01BD10B81E0E2970CF080E0DF91EF
:10046000CF911F910F91FF90EF90DF900895FC01C5
:1004700001900020E9F73197AF01481B590BBC01EF
:1004800083E391E00C94F8008F929F92AF92BF9219
:100490000F931F93CF93DF93CDB7DEB7A1970FB61E
:1004A000F894DEBF0FBECDBF19A2423008F44AE077
:1004B0008E010F5D1F4F842E912CB12CA12CA50114
:1004C00094010E948B06E62FB901CA01EA30F4F4C8
:1004D000E05DD801EE938D01232B242B252B79F79A
:1004E00090E080E0109719F0CD010E943702A196AC
:1004F0000FB6F894DEBF0FBECDBFDF91CF911F9135
:100500000F91BF90AF909F908F900895E95CE1CFDD
:100510004F925F926F927F928F929F92AF92BF9213
:10052000CF92DF92EF92FF920F931F93CF936B01C5
:100530007C01742EAC019B010E943A09882399F03A
:1005400082E191E0CF911F910F91FF90EF90DF90AA
:10055000CF90BF90AF909F908F907F906F905F9063
:100560004F900C94370246015701E894B7F82FEFEB
:100570003FEF4FE75FE7C501B4010E943A098111DF
:100580000DC02FEF3FEF4FE75FE7C501B4010E94B9
:10059000200718161CF486E191E0D4CF2FEF3FEF2F
:1005A0004FE75FE4C701B6010E94780818161CF4F3
:1005B0008AE191E0C7CF2FEF3FEF4FE75FECC70134
:1005C000B6010E94200787FDF3CF20E030E0A901AB
:1005D000C701B6010E94200710E000E087FF0AC0B3
:1005E0006DE283E391E00E9498018C01F7FAF094A8
:1005F000F7F8F094C0E060E070E080E09FE37C16E4
:1006000041F020E030E040E251E40E942507CF5F56
:10061000F6CFA70196010E94B4062B013C010E946F
:1006200097074B015C014AE00E9444027C01E00E06
:10063000F11ECC23C1F1C501B4010E94C6079B0184
:10064000AC01C301B2010E94B3064B015C016EE232
:1006500083E391E00E949801E80EF91EC15018F161
:1006600020E030E040E251E4C501B4010E94CD0831
:100670002B013C010E9497074B01B12CA12C4AE0B1
:10068000C501B4010E944402E80EF91EC501B4017F
:100690000E94C6079B01AC01C301B2010E94B306D0
:1006A0004B015C01DBCFC701CF911F910F91FF90F0
:1006B000EF90DF90CF90BF90AF909F908F907F9002
:1006C0006F905F904F9008951F920F920FB60F9208
:1006D00011242F933F938F939F93AF93BF93809158
:1006E0002B0190912C01A0912D01B0912E01309100
:1006F0002A0123E0230F2D3758F50196A11DB11DC6
:1007000020932A0180932B0190932C01A0932D011B
:10071000B0932E0180912F0190913001A091310171
:10072000B09132010196A11DB11D80932F019093CC
:100730003001A0933101B0933201BF91AF919F91ED
:100740008F913F912F910F900FBE0F901F90189592
:1007500026E8230F0296A11DB11DD2CF1F920F9242
:100760000FB60F9211242F933F934F935F936F9384
:100770007F938F939F93AF93BF93EF93FF9383E305
:1007800091E00E947601FF91EF91BF91AF919F910F
:100790008F917F916F915F914F913F912F910F902A
:1007A0000FBE0F901F9018951F920F920FB60F92C9
:1007B00011242F938F939F93EF93FF93E091430125
:1007C000F09144018081E0914901F0914A0182FD5C
:1007D0001BC0908180914C018F5F8F7320914D01E0
:1007E000821741F0E0914C01F0E0ED5CFE4F958FF7
:1007F00080934C01FF91EF919F918F912F910F90DA
:100800000FBE0F901F9018958081F4CFCF93DF9388
:10081000CDB7DEB72A970FB6F894DEBF0FBECDBFB7
:10082000789484B5826084BD84B5816084BD85B5CB
:10083000826085BD85B5816085BD80916E008160D7
:1008400080936E001092810080918100826080937D
:10085000810080918100816080938100809180007F
:100860008160809380008091B10084608093B100AA
:100870008091B00081608093B00080917A008460A4
:1008800080937A0080917A00826080937A008091D0
:100890007A00816080937A0080917A0080688093EA
:1008A0007A001092C100E0914301F091440182E08E
:1008B0008083E0913F01F09140011082E09141017D
:1008C000F09142018FEC808310924B01E09147013F
:1008D000F091480186E08083E0914501F091460166
:1008E000808180618083E0914501F09146018081A3
:1008F00088608083E0914501F091460180818068A5
:100900008083E0914501F091460180818F7D808355
:1009100064EF71E080E090E00E94C60030E0232E9A
:1009200030E0332E8FE090E00E940502182F80E126
:1009300090E00E9405028A8781E190E00E94050212
:1009400089878EE090E00E940502082F81114FC137
:10095000812C20EC922E29E7A22E24ECB22E412CE1
:10096000512C90E8692E9FEB792E1123E9F18FE04D
:100970000E948C00BC01990F880B990B0E94C8073C
:100980002AE038E240EA5BE30E94CD086B017C017B
:100990002DEC3CE04CE854EC0E94CD08A7019601F8
:1009A0000E94CD082B013C0126E632E743EB55E4DB
:1009B000C701B6010E94CD089B01AC01C301B20181
:1009C0000E94B40623E337E048E855E40E94B306EA
:1009D0002B013C0120E030E0A9010E94200787FFA5
:1009E00003C0412C512C32018A85882309F449C166
:1009F00080E10E948C00BC01990F880B990B0E942A
:100A0000C8072AE038E240EA5BE30E94CD089B0178
:100A1000AC0160E070E080E290E40E94B3062CEE4E
:100A200031E548E35EE30E94250720E030E040EE38
:100A300050E40E94B4066D837E838F8398879985E6
:100A4000C12CD12C80E8E82E8FEBF82E992309F4E5
:100A500079C081E10E948C00BC01990F880B990B31
:100A60000E94C8072AE038E240EA5BE30E94CD0812
:100A70006B017C0120E030E048EC51E4C501B40199
:100A80000E94B3062AE037ED43EA5CE30E94CD08FA
:100A900020E030E040E85FE30E94B4069B01AC0137
:100AA000C701B6010E9425076B017C0125E83BE6E2
:100AB00045E053E40E94CD08A70196010E94CD08AD
:100AC000A70196010E94CD0869837A838B839C835A
:100AD00029E23CED4FE753E4C701B6010E94CD087F
:100AE000A70196010E94CD089B01AC0169817A8122
:100AF0008B819C810E94B30669837A838B839C835C
:100B000026EF38E546E554E4C701B6010E94CD085A
:100B10009B01AC0169817A818B819C810E94B40622
:100B200020E030E040E05FE30E94CD086B017C01F3
:100B300020E030E0A9010E94200787FF03C0C12CFC
:100B4000D12C76018EE191E00E943702112309F445
:100B5000A1C041E0C301B2010E94880282E291E09B
:100B60000E943702AA85AA2309F499C042E06D8148
:100B70007E818F8198850E94880282E291E00E94A6
:100B80003702B985BB2309F48FC040E0C701B60125
:100B90000E94880282E291E00E943702002309F459
:100BA00088C020E030E048EC52ECC501B4010E945E
:100BB000780818160CF07DC041E0C501B4010E9410
:100BC000880287E291E00E94370268EE73E080E0DD
:100BD00090E00E94C6002114310409F4A3CE0E94C3
:100BE0006201882309F49ECE0E9400009BCE8EE015
:100BF0000E948C00009709F4ABCE8F3F23E0920750
:100C00000CF0A6CEBC01990F880B990B0E94C80767
:100C10009B01AC0160E070EC8FE794E40E94250733
:100C200020E030E040E85FE30E94B30620E030E4DB
:100C30004CE156E40E94CD0820E030E44CE156E45B
:100C40000E9425070E94850820E030EE46E755E423
:100C50000E9425072FE03FEC4BE55BE30E94B406C2
:100C60009B01AC0160E070E080E89FE30E942507F3
:100C700023E333E948E853E40E94B3064B015C01E7
:100C80006ECE80E090E0A0E8BFEB8D839E83AF83C3
:100C9000B887D5CE84E291E00E9437025FCF84E22C
:100CA00091E00E94370269CF84E291E00E9437020E
:100CB00071CF84E291E00E94370283CFE3E3F1E059
:100CC0001382128288EE93E0A0E0B0E084839583E3
:100CD000A683B78384E091E09183808385EC90E0E4
:100CE0009587848784EC90E09787868780EC90E0F6
:100CF000918B808B81EC90E0938B828B82EC90E0E7
:100D0000958B848B86EC90E0978B868B118E128E60
:100D1000138E148E0895A1E21A2EAA1BBB1BFD018F
:100D20000DC0AA1FBB1FEE1FFF1FA217B307E407CA
:100D3000F50720F0A21BB30BE40BF50B661F771F22
:100D4000881F991F1A9469F7609570958095909502
:100D50009B01AC01BD01CF010895EE0FFF1F05906F
:100D6000F491E02D09945058BB27AA270E94CB0686
:100D70000C943E080E94300838F00E94370820F09A
:100D800039F49F3F19F426F40C942D080EF4E095E5
:100D9000E7FB0C942708E92F0E944F0858F3BA1775
:100DA000620773078407950720F079F4A6F50C9481
:100DB00071080EF4E0950B2EBA2FA02D0B01B9018E
:100DC00090010C01CA01A0011124FF27591B99F0C1
:100DD000593F50F4503E68F11A16F040A22F232FCD
:100DE000342F4427585FF3CF469537952795A7951D
:100DF000F0405395C9F77EF41F16BA0B620B730BC4
:100E0000840BBAF09150A1F0FF0FBB1F661F771F34
:100E1000881FC2F70EC0BA0F621F731F841F48F4E9
:100E2000879577956795B795F7959E3F08F0B0CF72
:100E30009395880F08F09927EE0F97958795089559
:100E40000E94030808F481E008950E9439070C9479
:100E50003E080E94370858F00E94300840F029F4FC
:100E60005F3F29F00C94270851110C9472080C94E0
:100E70002D080E944F0868F39923B1F3552391F38D
:100E8000951B550BBB27AA2762177307840738F0F9
:100E90009F5F5F4F220F331F441FAA1FA9F335D056
:100EA0000E2E3AF0E0E832D091505040E695001C0A
:100EB000CAF72BD0FE2F29D0660F771F881FBB1FC4
:100EC000261737074807AB07B0E809F0BB0B802DA2
:100ED000BF01FF2793585F4F3AF09E3F510578F0CE
:100EE0000C9427080C9472085F3FE4F3983ED4F307
:100EF000869577956795B795F7959F5FC9F7880FA2
:100F0000911D9695879597F90895E1E0660F771FF3
:100F1000881FBB1F621773078407BA0720F0621B84
:100F2000730B840BBA0BEE1F88F7E09508950E94AF
:100F3000570888F09F5798F0B92F9927B751B0F00C
:100F4000E1F0660F771F881F991F1AF0BA95C9F74D
:100F500014C0B13091F00E947108B1E008950C9472
:100F60007108672F782F8827B85F39F0B93FCCF325
:100F7000869577956795B395D9F73EF490958095CA
:100F8000709561957F4F8F4F9F4F0895E89409C0EA
:100F900097FB3EF490958095709561957F4F8F4FAC
:100FA0009F4F9923A9F0F92F96E9BB279395F695C2
:100FB000879577956795B795F111F8CFFAF4BB0F40
:100FC00011F460FF1BC06F5F7F4F8F4F9F4F16C0A4
:100FD000882311F096E911C0772321F09EE8872F2E
:100FE000762F05C0662371F096E8862F70E060E0EA
:100FF0002AF09A95660F771F881FDAF7880F969563
:10100000879597F90895990F0008550FAA0BE0E806
:10101000FEEF16161706E807F907C0F012161306BA
:10102000E407F50798F0621B730B840B950B39F4FA
:101030000A2661F0232B242B252B21F408950A2660
:1010400009F4A140A6958FEF811D811D089597F9A0
:101050009F6780E870E060E008959FEF80EC08955E
:1010600000240A9416161706180609060895002487
:101070000A9412161306140605060895092E039401
:10108000000C11F4882352F0BB0F40F4BF2B11F475
:1010900060FF04C06F5F7F4F8F4F9F4F089557FDD4
:1010A0009058440F551F59F05F3F71F04795880FD6
:1010B00097FB991F61F09F3F79F08795089512166D
:1010C00013061406551FF2CF4695F1DF08C0161619
:1010D00017061806991FF1CF8695710561050894CA
:1010E0000895E894BB2766277727CB0197F90895E1
:1010F0000E94030808F48FEF089516F00C943F093E
:101100000C942D0868940C9427080E945708A8F3A3
:101110009923C1F3AEF3DF93CF931F930F93FF9205
:10112000C92FDD2788232AF02197660F771F881F94
:10113000DAF720E030E040E85FEB9FE3883920F009
:10114000803E38F021968F770E94B406E8E6F0E002
:1011500004C00E94B406E5E9F0E00E944D098B014D
:10116000BE01EC01FB2E6F5771097595771F880B37
:10117000990B0E94C80728E132E741E35FE30E9430
:10118000E008AF2D9801AE01FF900F911F91CF9114
:10119000DF910E94CB060C943E080E94E0080C945C
:1011A0003E080E94300838F00E94370820F095234E
:1011B00011F00C9427080C942D0811240C9472083B
:1011C0000E944F0870F3959FC1F3950F50E0551F93
:1011D000629FF001729FBB27F00DB11D639FAA278C
:1011E000F00DB11DAA1F649F6627B00DA11D661FDB
:1011F000829F2227B00DA11D621F739FB00DA11DFC
:10120000621F839FA00D611D221F749F3327A00DB5
:10121000611D231F849F600D211D822F762F6A2F51
:1012200011249F5750409AF0F1F088234AF0EE0FB6
:10123000FF1FBB1F661F771F881F91505040A9F7E3
:101240009E3F510580F00C9427080C9472085F3F74
:10125000E4F3983ED4F3869577956795B795F7951F
:10126000E7959F5FC1F7FE2B880F911D9695879597
:1012700097F908950E940308880B990B08959F3FE2
:1012800031F0915020F4879577956795B795880F41
:10129000911D9695879597F90895DF93CF931F93A6
:1012A0000F93FF92EF92DF927B018C01689406C04E
:1012B000DA2EEF010E94E008FE01E894A591259145
:1012C000359145915591A6F3EF010E94CB06FE01A1
:1012D0009701A801DA9469F7DF90EF90FF900F91E2
:0C12E0001F91CF91DF910895F894FFCF8B
:1012EC00000000009801F8002501E50156013401C9
:1012FC0048016E616E00696E66006F76660044414F
:0A130C0054412C002D2D000D0A00A5
:00000001FF
